{
  "contractName": "CoffeeSupplyChain",
  "abi": [
    {
      "constant": false,
      "inputs": [],
      "name": "renounceOwnership",
      "outputs": [],
      "payable": false,
      "stateMutability": "nonpayable",
      "type": "function"
    },
    {
      "constant": true,
      "inputs": [],
      "name": "owner",
      "outputs": [
        {
          "name": "",
          "type": "address"
        }
      ],
      "payable": false,
      "stateMutability": "view",
      "type": "function"
    },
    {
      "constant": false,
      "inputs": [
        {
          "name": "newOwner",
          "type": "address"
        }
      ],
      "name": "transferOwnership",
      "outputs": [],
      "payable": false,
      "stateMutability": "nonpayable",
      "type": "function"
    },
    {
      "inputs": [
        {
          "name": "_supplyChainAddress",
          "type": "address"
        }
      ],
      "payable": false,
      "stateMutability": "nonpayable",
      "type": "constructor"
    },
    {
      "anonymous": false,
      "inputs": [
        {
          "indexed": true,
          "name": "user",
          "type": "address"
        },
        {
          "indexed": true,
          "name": "batchNo",
          "type": "address"
        }
      ],
      "name": "PerformCultivation",
      "type": "event"
    },
    {
      "anonymous": false,
      "inputs": [
        {
          "indexed": true,
          "name": "user",
          "type": "address"
        },
        {
          "indexed": true,
          "name": "batchNo",
          "type": "address"
        }
      ],
      "name": "DoneInspection",
      "type": "event"
    },
    {
      "anonymous": false,
      "inputs": [
        {
          "indexed": true,
          "name": "user",
          "type": "address"
        },
        {
          "indexed": true,
          "name": "batchNo",
          "type": "address"
        }
      ],
      "name": "DoneHarvesting",
      "type": "event"
    },
    {
      "anonymous": false,
      "inputs": [
        {
          "indexed": true,
          "name": "user",
          "type": "address"
        },
        {
          "indexed": true,
          "name": "batchNo",
          "type": "address"
        }
      ],
      "name": "DoneExporting",
      "type": "event"
    },
    {
      "anonymous": false,
      "inputs": [
        {
          "indexed": true,
          "name": "user",
          "type": "address"
        },
        {
          "indexed": true,
          "name": "batchNo",
          "type": "address"
        }
      ],
      "name": "DoneImporting",
      "type": "event"
    },
    {
      "anonymous": false,
      "inputs": [
        {
          "indexed": true,
          "name": "user",
          "type": "address"
        },
        {
          "indexed": true,
          "name": "batchNo",
          "type": "address"
        }
      ],
      "name": "DoneProcessing",
      "type": "event"
    },
    {
      "anonymous": false,
      "inputs": [
        {
          "indexed": true,
          "name": "previousOwner",
          "type": "address"
        }
      ],
      "name": "OwnershipRenounced",
      "type": "event"
    },
    {
      "anonymous": false,
      "inputs": [
        {
          "indexed": true,
          "name": "previousOwner",
          "type": "address"
        },
        {
          "indexed": true,
          "name": "newOwner",
          "type": "address"
        }
      ],
      "name": "OwnershipTransferred",
      "type": "event"
    },
    {
      "constant": true,
      "inputs": [
        {
          "name": "_batchNo",
          "type": "address"
        }
      ],
      "name": "getNextAction",
      "outputs": [
        {
          "name": "action",
          "type": "string"
        }
      ],
      "payable": false,
      "stateMutability": "view",
      "type": "function"
    },
    {
      "constant": true,
      "inputs": [
        {
          "name": "_batchNo",
          "type": "address"
        }
      ],
      "name": "getBasicDetails",
      "outputs": [
        {
          "name": "registrationNo",
          "type": "string"
        },
        {
          "name": "farmerName",
          "type": "string"
        },
        {
          "name": "farmAddress",
          "type": "string"
        },
        {
          "name": "exporterName",
          "type": "string"
        },
        {
          "name": "importerName",
          "type": "string"
        }
      ],
      "payable": false,
      "stateMutability": "view",
      "type": "function"
    },
    {
      "constant": false,
      "inputs": [
        {
          "name": "_registrationNo",
          "type": "string"
        },
        {
          "name": "_farmerName",
          "type": "string"
        },
        {
          "name": "_farmAddress",
          "type": "string"
        },
        {
          "name": "_exporterName",
          "type": "string"
        },
        {
          "name": "_importerName",
          "type": "string"
        }
      ],
      "name": "addBasicDetails",
      "outputs": [
        {
          "name": "",
          "type": "address"
        }
      ],
      "payable": false,
      "stateMutability": "nonpayable",
      "type": "function"
    },
    {
      "constant": true,
      "inputs": [
        {
          "name": "_batchNo",
          "type": "address"
        }
      ],
      "name": "getFarmInspectorData",
      "outputs": [
        {
          "name": "coffeeFamily",
          "type": "string"
        },
        {
          "name": "typeOfSeed",
          "type": "string"
        },
        {
          "name": "fertilizerUsed",
          "type": "string"
        }
      ],
      "payable": false,
      "stateMutability": "view",
      "type": "function"
    },
    {
      "constant": false,
      "inputs": [
        {
          "name": "_batchNo",
          "type": "address"
        },
        {
          "name": "_coffeeFamily",
          "type": "string"
        },
        {
          "name": "_typeOfSeed",
          "type": "string"
        },
        {
          "name": "_fertilizerUsed",
          "type": "string"
        }
      ],
      "name": "updateFarmInspectorData",
      "outputs": [
        {
          "name": "",
          "type": "bool"
        }
      ],
      "payable": false,
      "stateMutability": "nonpayable",
      "type": "function"
    },
    {
      "constant": true,
      "inputs": [
        {
          "name": "_batchNo",
          "type": "address"
        }
      ],
      "name": "getHarvesterData",
      "outputs": [
        {
          "name": "cropVariety",
          "type": "string"
        },
        {
          "name": "temperatureUsed",
          "type": "string"
        },
        {
          "name": "humidity",
          "type": "string"
        }
      ],
      "payable": false,
      "stateMutability": "view",
      "type": "function"
    },
    {
      "constant": false,
      "inputs": [
        {
          "name": "_batchNo",
          "type": "address"
        },
        {
          "name": "_cropVariety",
          "type": "string"
        },
        {
          "name": "_temperatureUsed",
          "type": "string"
        },
        {
          "name": "_humidity",
          "type": "string"
        }
      ],
      "name": "updateHarvesterData",
      "outputs": [
        {
          "name": "",
          "type": "bool"
        }
      ],
      "payable": false,
      "stateMutability": "nonpayable",
      "type": "function"
    },
    {
      "constant": true,
      "inputs": [
        {
          "name": "_batchNo",
          "type": "address"
        }
      ],
      "name": "getExporterData",
      "outputs": [
        {
          "name": "quantity",
          "type": "uint256"
        },
        {
          "name": "destinationAddress",
          "type": "string"
        },
        {
          "name": "shipName",
          "type": "string"
        },
        {
          "name": "shipNo",
          "type": "string"
        },
        {
          "name": "departureDateTime",
          "type": "uint256"
        },
        {
          "name": "estimateDateTime",
          "type": "uint256"
        },
        {
          "name": "exporterId",
          "type": "uint256"
        }
      ],
      "payable": false,
      "stateMutability": "view",
      "type": "function"
    },
    {
      "constant": false,
      "inputs": [
        {
          "name": "_batchNo",
          "type": "address"
        },
        {
          "name": "_quantity",
          "type": "uint256"
        },
        {
          "name": "_destinationAddress",
          "type": "string"
        },
        {
          "name": "_shipName",
          "type": "string"
        },
        {
          "name": "_shipNo",
          "type": "string"
        },
        {
          "name": "_estimateDateTime",
          "type": "uint256"
        },
        {
          "name": "_exporterId",
          "type": "uint256"
        }
      ],
      "name": "updateExporterData",
      "outputs": [
        {
          "name": "",
          "type": "bool"
        }
      ],
      "payable": false,
      "stateMutability": "nonpayable",
      "type": "function"
    },
    {
      "constant": true,
      "inputs": [
        {
          "name": "_batchNo",
          "type": "address"
        }
      ],
      "name": "getImporterData",
      "outputs": [
        {
          "name": "quantity",
          "type": "uint256"
        },
        {
          "name": "shipName",
          "type": "string"
        },
        {
          "name": "shipNo",
          "type": "string"
        },
        {
          "name": "arrivalDateTime",
          "type": "uint256"
        },
        {
          "name": "transportInfo",
          "type": "string"
        },
        {
          "name": "warehouseName",
          "type": "string"
        },
        {
          "name": "warehouseAddress",
          "type": "string"
        },
        {
          "name": "importerId",
          "type": "uint256"
        }
      ],
      "payable": false,
      "stateMutability": "view",
      "type": "function"
    },
    {
      "constant": false,
      "inputs": [
        {
          "name": "_batchNo",
          "type": "address"
        },
        {
          "name": "_quantity",
          "type": "uint256"
        },
        {
          "name": "_shipName",
          "type": "string"
        },
        {
          "name": "_shipNo",
          "type": "string"
        },
        {
          "name": "_transportInfo",
          "type": "string"
        },
        {
          "name": "_warehouseName",
          "type": "string"
        },
        {
          "name": "_warehouseAddress",
          "type": "string"
        },
        {
          "name": "_importerId",
          "type": "uint256"
        }
      ],
      "name": "updateImporterData",
      "outputs": [
        {
          "name": "",
          "type": "bool"
        }
      ],
      "payable": false,
      "stateMutability": "nonpayable",
      "type": "function"
    },
    {
      "constant": true,
      "inputs": [
        {
          "name": "_batchNo",
          "type": "address"
        }
      ],
      "name": "getProcessorData",
      "outputs": [
        {
          "name": "quantity",
          "type": "uint256"
        },
        {
          "name": "temperature",
          "type": "string"
        },
        {
          "name": "rostingDuration",
          "type": "uint256"
        },
        {
          "name": "internalBatchNo",
          "type": "string"
        },
        {
          "name": "packageDateTime",
          "type": "uint256"
        },
        {
          "name": "processorName",
          "type": "string"
        },
        {
          "name": "processorAddress",
          "type": "string"
        }
      ],
      "payable": false,
      "stateMutability": "view",
      "type": "function"
    },
    {
      "constant": false,
      "inputs": [
        {
          "name": "_batchNo",
          "type": "address"
        },
        {
          "name": "_quantity",
          "type": "uint256"
        },
        {
          "name": "_temperature",
          "type": "string"
        },
        {
          "name": "_rostingDuration",
          "type": "uint256"
        },
        {
          "name": "_internalBatchNo",
          "type": "string"
        },
        {
          "name": "_packageDateTime",
          "type": "uint256"
        },
        {
          "name": "_processorName",
          "type": "string"
        },
        {
          "name": "_processorAddress",
          "type": "string"
        }
      ],
      "name": "updateProcessorData",
      "outputs": [
        {
          "name": "",
          "type": "bool"
        }
      ],
      "payable": false,
      "stateMutability": "nonpayable",
      "type": "function"
    }
  ],
  "bytecode": "0x608060405234801561001057600080fd5b506040516020806153c583398101806040528101908080519060200190929190505050336000806101000a81548173ffffffffffffffffffffffffffffffffffffffff021916908373ffffffffffffffffffffffffffffffffffffffff16021790555080600160006101000a81548173ffffffffffffffffffffffffffffffffffffffff021916908373ffffffffffffffffffffffffffffffffffffffff16021790555050615301806100c46000396000f3006080604052600436106100e6576000357c0100000000000000000000000000000000000000000000000000000000900463ffffffff16806302e716ca146100eb57806306ecd6d4146102b857806347290118146104685780634b205122146105b35780634d6b5e0014610774578063715018a6146108305780637f89e94b1461084757806381f960c2146109db57806389d42c2e14610b085780638da5cb5b14610c99578063b6959d7314610cf0578063ca5322e514610f05578063ebca7e1c14611099578063f2997d76146111c6578063f2fde38b14611432578063febd049214611475575b600080fd5b3480156100f757600080fd5b5061029e600480360381019080803573ffffffffffffffffffffffffffffffffffffffff16906020019092919080359060200190929190803590602001908201803590602001908080601f0160208091040260200160405190810160405280939291908181526020018383808284378201915050505050509192919290803590602001908201803590602001908080601f0160208091040260200160405190810160405280939291908181526020018383808284378201915050505050509192919290803590602001908201803590602001908080601f0160208091040260200160405190810160405280939291908181526020018383808284378201915050505050509192919290803590602001908201803590602001908080601f0160208091040260200160405190810160405280939291908181526020018383808284378201915050505050509192919290803590602001908201803590602001908080601f0160208091040260200160405190810160405280939291908181526020018383808284378201915050505050509192919290803590602001909291905050506116f6565b604051808215151515815260200191505060405180910390f35b3480156102c457600080fd5b506102f9600480360381019080803573ffffffffffffffffffffffffffffffffffffffff169060200190929190505050611f15565b6040518088815260200180602001806020018060200187815260200186815260200185815260200184810384528a818151815260200191508051906020019080838360005b8381101561035957808201518184015260208101905061033e565b50505050905090810190601f1680156103865780820380516001836020036101000a031916815260200191505b50848103835289818151815260200191508051906020019080838360005b838110156103bf5780820151818401526020810190506103a4565b50505050905090810190601f1680156103ec5780820380516001836020036101000a031916815260200191505b50848103825288818151815260200191508051906020019080838360005b8381101561042557808201518184015260208101905061040a565b50505050905090810190601f1680156104525780820380516001836020036101000a031916815260200191505b509a505050505050505050505060405180910390f35b34801561047457600080fd5b50610599600480360381019080803573ffffffffffffffffffffffffffffffffffffffff16906020019092919080359060200190929190803590602001908201803590602001908080601f0160208091040260200160405190810160405280939291908181526020018383808284378201915050505050509192919290803590602001908201803590602001908080601f0160208091040260200160405190810160405280939291908181526020018383808284378201915050505050509192919290803590602001908201803590602001908080601f01602080910402602001604051908101604052809392919081815260200183838082843782019150505050505091929192908035906020019092919080359060200190929190505050612174565b604051808215151515815260200191505060405180910390f35b3480156105bf57600080fd5b50610732600480360381019080803590602001908201803590602001908080601f0160208091040260200160405190810160405280939291908181526020018383808284378201915050505050509192919290803590602001908201803590602001908080601f0160208091040260200160405190810160405280939291908181526020018383808284378201915050505050509192919290803590602001908201803590602001908080601f0160208091040260200160405190810160405280939291908181526020018383808284378201915050505050509192919290803590602001908201803590602001908080601f0160208091040260200160405190810160405280939291908181526020018383808284378201915050505050509192919290803590602001908201803590602001908080601f01602080910402602001604051908101604052809392919081815260200183838082843782019150505050505091929192905050506128c0565b604051808273ffffffffffffffffffffffffffffffffffffffff1673ffffffffffffffffffffffffffffffffffffffff16815260200191505060405180910390f35b34801561078057600080fd5b506107b5600480360381019080803573ffffffffffffffffffffffffffffffffffffffff169060200190929190505050612c6c565b6040518080602001828103825283818151815260200191508051906020019080838360005b838110156107f55780820151818401526020810190506107da565b50505050905090810190601f1680156108225780820380516001836020036101000a031916815260200191505b509250505060405180910390f35b34801561083c57600080fd5b50610845612dc6565b005b34801561085357600080fd5b50610888600480360381019080803573ffffffffffffffffffffffffffffffffffffffff169060200190929190505050612ec8565b60405180806020018060200180602001848103845287818151815260200191508051906020019080838360005b838110156108d05780820151818401526020810190506108b5565b50505050905090810190601f1680156108fd5780820380516001836020036101000a031916815260200191505b50848103835286818151815260200191508051906020019080838360005b8381101561093657808201518184015260208101905061091b565b50505050905090810190601f1680156109635780820380516001836020036101000a031916815260200191505b50848103825285818151815260200191508051906020019080838360005b8381101561099c578082015181840152602081019050610981565b50505050905090810190601f1680156109c95780820380516001836020036101000a031916815260200191505b50965050505050505060405180910390f35b3480156109e757600080fd5b50610aee600480360381019080803573ffffffffffffffffffffffffffffffffffffffff169060200190929190803590602001908201803590602001908080601f0160208091040260200160405190810160405280939291908181526020018383808284378201915050505050509192919290803590602001908201803590602001908080601f0160208091040260200160405190810160405280939291908181526020018383808284378201915050505050509192919290803590602001908201803590602001908080601f01602080910402602001604051908101604052809392919081815260200183838082843782019150505050505091929192905050506130d5565b604051808215151515815260200191505060405180910390f35b348015610b1457600080fd5b50610c7f600480360381019080803573ffffffffffffffffffffffffffffffffffffffff16906020019092919080359060200190929190803590602001908201803590602001908080601f016020809104026020016040519081016040528093929190818152602001838380828437820191505050505050919291929080359060200190929190803590602001908201803590602001908080601f016020809104026020016040519081016040528093929190818152602001838380828437820191505050505050919291929080359060200190929190803590602001908201803590602001908080601f0160208091040260200160405190810160405280939291908181526020018383808284378201915050505050509192919290803590602001908201803590602001908080601f0160208091040260200160405190810160405280939291908181526020018383808284378201915050505050509192919290505050613806565b604051808215151515815260200191505060405180910390f35b348015610ca557600080fd5b50610cae613fc0565b604051808273ffffffffffffffffffffffffffffffffffffffff1673ffffffffffffffffffffffffffffffffffffffff16815260200191505060405180910390f35b348015610cfc57600080fd5b50610d31600480360381019080803573ffffffffffffffffffffffffffffffffffffffff169060200190929190505050613fe5565b604051808881526020018060200187815260200180602001868152602001806020018060200185810385528b818151815260200191508051906020019080838360005b83811015610d8f578082015181840152602081019050610d74565b50505050905090810190601f168015610dbc5780820380516001836020036101000a031916815260200191505b50858103845289818151815260200191508051906020019080838360005b83811015610df5578082015181840152602081019050610dda565b50505050905090810190601f168015610e225780820380516001836020036101000a031916815260200191505b50858103835287818151815260200191508051906020019080838360005b83811015610e5b578082015181840152602081019050610e40565b50505050905090810190601f168015610e885780820380516001836020036101000a031916815260200191505b50858103825286818151815260200191508051906020019080838360005b83811015610ec1578082015181840152602081019050610ea6565b50505050905090810190601f168015610eee5780820380516001836020036101000a031916815260200191505b509b50505050505050505050505060405180910390f35b348015610f1157600080fd5b50610f46600480360381019080803573ffffffffffffffffffffffffffffffffffffffff169060200190929190505050614287565b60405180806020018060200180602001848103845287818151815260200191508051906020019080838360005b83811015610f8e578082015181840152602081019050610f73565b50505050905090810190601f168015610fbb5780820380516001836020036101000a031916815260200191505b50848103835286818151815260200191508051906020019080838360005b83811015610ff4578082015181840152602081019050610fd9565b50505050905090810190601f1680156110215780820380516001836020036101000a031916815260200191505b50848103825285818151815260200191508051906020019080838360005b8381101561105a57808201518184015260208101905061103f565b50505050905090810190601f1680156110875780820380516001836020036101000a031916815260200191505b50965050505050505060405180910390f35b3480156110a557600080fd5b506111ac600480360381019080803573ffffffffffffffffffffffffffffffffffffffff169060200190929190803590602001908201803590602001908080601f0160208091040260200160405190810160405280939291908181526020018383808284378201915050505050509192919290803590602001908201803590602001908080601f0160208091040260200160405190810160405280939291908181526020018383808284378201915050505050509192919290803590602001908201803590602001908080601f0160208091040260200160405190810160405280939291908181526020018383808284378201915050505050509192919290505050614494565b604051808215151515815260200191505060405180910390f35b3480156111d257600080fd5b50611207600480360381019080803573ffffffffffffffffffffffffffffffffffffffff169060200190929190505050614bc5565b60405180806020018060200180602001806020018060200186810386528b818151815260200191508051906020019080838360005b8381101561125757808201518184015260208101905061123c565b50505050905090810190601f1680156112845780820380516001836020036101000a031916815260200191505b5086810385528a818151815260200191508051906020019080838360005b838110156112bd5780820151818401526020810190506112a2565b50505050905090810190601f1680156112ea5780820380516001836020036101000a031916815260200191505b50868103845289818151815260200191508051906020019080838360005b83811015611323578082015181840152602081019050611308565b50505050905090810190601f1680156113505780820380516001836020036101000a031916815260200191505b50868103835288818151815260200191508051906020019080838360005b8381101561138957808201518184015260208101905061136e565b50505050905090810190601f1680156113b65780820380516001836020036101000a031916815260200191505b50868103825287818151815260200191508051906020019080838360005b838110156113ef5780820151818401526020810190506113d4565b50505050905090810190601f16801561141c5780820380516001836020036101000a031916815260200191505b509a505050505050505050505060405180910390f35b34801561143e57600080fd5b50611473600480360381019080803573ffffffffffffffffffffffffffffffffffffffff169060200190929190505050614e83565b005b34801561148157600080fd5b506114b6600480360381019080803573ffffffffffffffffffffffffffffffffffffffff169060200190929190505050614fd8565b60405180898152602001806020018060200188815260200180602001806020018060200187815260200186810386528d818151815260200191508051906020019080838360005b838110156115185780820151818401526020810190506114fd565b50505050905090810190601f1680156115455780820380516001836020036101000a031916815260200191505b5086810385528c818151815260200191508051906020019080838360005b8381101561157e578082015181840152602081019050611563565b50505050905090810190601f1680156115ab5780820380516001836020036101000a031916815260200191505b5086810384528a818151815260200191508051906020019080838360005b838110156115e45780820151818401526020810190506115c9565b50505050905090810190601f1680156116115780820380516001836020036101000a031916815260200191505b50868103835289818151815260200191508051906020019080838360005b8381101561164a57808201518184015260208101905061162f565b50505050905090810190601f1680156116775780820380516001836020036101000a031916815260200191505b50868103825288818151815260200191508051906020019080838360005b838110156116b0578082015181840152602081019050611695565b50505050905090810190601f1680156116dd5780820380516001836020036101000a031916815260200191505b509d505050505050505050505050505060405180910390f35b600080896040805190810160405280600881526020017f494d504f52544552000000000000000000000000000000000000000000000000815250806040518082805190602001908083835b6020831015156117665780518252602082019150602081019050602083039250611741565b6001836020036101000a038019825116818451168082178552505050505050905001915050604051809103902060001916600160009054906101000a900473ffffffffffffffffffffffffffffffffffffffff1673ffffffffffffffffffffffffffffffffffffffff166327820851336040518263ffffffff167c0100000000000000000000000000000000000000000000000000000000028152600401808273ffffffffffffffffffffffffffffffffffffffff1673ffffffffffffffffffffffffffffffffffffffff168152602001915050600060405180830381600087803b15801561185457600080fd5b505af1158015611868573d6000803e3d6000fd5b505050506040513d6000823e3d601f19601f82011682018060405250602081101561189257600080fd5b8101908080516401000000008111156118aa57600080fd5b828101905060208101848111156118c057600080fd5b81518560018202830111640100000000821117156118dd57600080fd5b50509291905050506040518082805190602001908083835b60208310151561191a57805182526020820191506020810190506020830392506118f5565b6001836020036101000a03801982511681845116808217855250505050505090500191505060405180910390206000191614151561195757600080fd5b806040518082805190602001908083835b60208310151561198d5780518252602082019150602081019050602083039250611968565b6001836020036101000a038019825116818451168082178552505050505050905001915050604051809103902060001916600160009054906101000a900473ffffffffffffffffffffffffffffffffffffffff1673ffffffffffffffffffffffffffffffffffffffff16634d6b5e00846040518263ffffffff167c0100000000000000000000000000000000000000000000000000000000028152600401808273ffffffffffffffffffffffffffffffffffffffff1673ffffffffffffffffffffffffffffffffffffffff168152602001915050600060405180830381600087803b158015611a7b57600080fd5b505af1158015611a8f573d6000803e3d6000fd5b505050506040513d6000823e3d601f19601f820116820180604052506020811015611ab957600080fd5b810190808051640100000000811115611ad157600080fd5b82810190506020810184811115611ae757600080fd5b8151856001820283011164010000000082111715611b0457600080fd5b50509291905050506040518082805190602001908083835b602083101515611b415780518252602082019150602081019050602083039250611b1c565b6001836020036101000a038019825116818451168082178552505050505050905001915050604051809103902060001916141515611b7e57600080fd5b600160009054906101000a900473ffffffffffffffffffffffffffffffffffffffff1673ffffffffffffffffffffffffffffffffffffffff16636115eec28d8d8d8d8d8d8d8d6040518963ffffffff167c0100000000000000000000000000000000000000000000000000000000028152600401808973ffffffffffffffffffffffffffffffffffffffff1673ffffffffffffffffffffffffffffffffffffffff168152602001888152602001806020018060200180602001806020018060200187815260200186810386528c818151815260200191508051906020019080838360005b83811015611c7d578082015181840152602081019050611c62565b50505050905090810190601f168015611caa5780820380516001836020036101000a031916815260200191505b5086810385528b818151815260200191508051906020019080838360005b83811015611ce3578082015181840152602081019050611cc8565b50505050905090810190601f168015611d105780820380516001836020036101000a031916815260200191505b5086810384528a818151815260200191508051906020019080838360005b83811015611d49578082015181840152602081019050611d2e565b50505050905090810190601f168015611d765780820380516001836020036101000a031916815260200191505b50868103835289818151815260200191508051906020019080838360005b83811015611daf578082015181840152602081019050611d94565b50505050905090810190601f168015611ddc5780820380516001836020036101000a031916815260200191505b50868103825288818151815260200191508051906020019080838360005b83811015611e15578082015181840152602081019050611dfa565b50505050905090810190601f168015611e425780820380516001836020036101000a031916815260200191505b509d5050505050505050505050505050602060405180830381600087803b158015611e6c57600080fd5b505af1158015611e80573d6000803e3d6000fd5b505050506040513d6020811015611e9657600080fd5b810190808051906020019092919050505092508b73ffffffffffffffffffffffffffffffffffffffff163373ffffffffffffffffffffffffffffffffffffffff167fd42f803be1969ed3d7fe76e90571304a3e70f2f32b20773cbc303eff548cb05f60405160405180910390a382935050505098975050505050505050565b600060608060606000806000600160009054906101000a900473ffffffffffffffffffffffffffffffffffffffff1673ffffffffffffffffffffffffffffffffffffffff166306ecd6d4896040518263ffffffff167c0100000000000000000000000000000000000000000000000000000000028152600401808273ffffffffffffffffffffffffffffffffffffffff1673ffffffffffffffffffffffffffffffffffffffff168152602001915050600060405180830381600087803b158015611fde57600080fd5b505af1158015611ff2573d6000803e3d6000fd5b505050506040513d6000823e3d601f19601f8201168201806040525060e081101561201c57600080fd5b8101908080519060200190929190805164010000000081111561203e57600080fd5b8281019050602081018481111561205457600080fd5b815185600182028301116401000000008211171561207157600080fd5b5050929190602001805164010000000081111561208d57600080fd5b828101905060208101848111156120a357600080fd5b81518560018202830111640100000000821117156120c057600080fd5b505092919060200180516401000000008111156120dc57600080fd5b828101905060208101848111156120f257600080fd5b815185600182028301116401000000008211171561210f57600080fd5b5050929190602001805190602001909291908051906020019092919080519060200190929190505050809750819850829950839a50849b50859c50869d5050505050505050868686868686869650965096509650965096509650919395979092949650565b600080886040805190810160405280600881526020017f4558504f52544552000000000000000000000000000000000000000000000000815250806040518082805190602001908083835b6020831015156121e457805182526020820191506020810190506020830392506121bf565b6001836020036101000a038019825116818451168082178552505050505050905001915050604051809103902060001916600160009054906101000a900473ffffffffffffffffffffffffffffffffffffffff1673ffffffffffffffffffffffffffffffffffffffff166327820851336040518263ffffffff167c0100000000000000000000000000000000000000000000000000000000028152600401808273ffffffffffffffffffffffffffffffffffffffff1673ffffffffffffffffffffffffffffffffffffffff168152602001915050600060405180830381600087803b1580156122d257600080fd5b505af11580156122e6573d6000803e3d6000fd5b505050506040513d6000823e3d601f19601f82011682018060405250602081101561231057600080fd5b81019080805164010000000081111561232857600080fd5b8281019050602081018481111561233e57600080fd5b815185600182028301116401000000008211171561235b57600080fd5b50509291905050506040518082805190602001908083835b6020831015156123985780518252602082019150602081019050602083039250612373565b6001836020036101000a0380198251168184511680821785525050505050509050019150506040518091039020600019161415156123d557600080fd5b806040518082805190602001908083835b60208310151561240b57805182526020820191506020810190506020830392506123e6565b6001836020036101000a038019825116818451168082178552505050505050905001915050604051809103902060001916600160009054906101000a900473ffffffffffffffffffffffffffffffffffffffff1673ffffffffffffffffffffffffffffffffffffffff16634d6b5e00846040518263ffffffff167c0100000000000000000000000000000000000000000000000000000000028152600401808273ffffffffffffffffffffffffffffffffffffffff1673ffffffffffffffffffffffffffffffffffffffff168152602001915050600060405180830381600087803b1580156124f957600080fd5b505af115801561250d573d6000803e3d6000fd5b505050506040513d6000823e3d601f19601f82011682018060405250602081101561253757600080fd5b81019080805164010000000081111561254f57600080fd5b8281019050602081018481111561256557600080fd5b815185600182028301116401000000008211171561258257600080fd5b50509291905050506040518082805190602001908083835b6020831015156125bf578051825260208201915060208101905060208303925061259a565b6001836020036101000a0380198251168184511680821785525050505050509050019150506040518091039020600019161415156125fc57600080fd5b600160009054906101000a900473ffffffffffffffffffffffffffffffffffffffff1673ffffffffffffffffffffffffffffffffffffffff1663b51a32168c8c8c8c8c8c8c6040518863ffffffff167c0100000000000000000000000000000000000000000000000000000000028152600401808873ffffffffffffffffffffffffffffffffffffffff1673ffffffffffffffffffffffffffffffffffffffff168152602001878152602001806020018060200180602001868152602001858152602001848103845289818151815260200191508051906020019080838360005b838110156126f85780820151818401526020810190506126dd565b50505050905090810190601f1680156127255780820380516001836020036101000a031916815260200191505b50848103835288818151815260200191508051906020019080838360005b8381101561275e578082015181840152602081019050612743565b50505050905090810190601f16801561278b5780820380516001836020036101000a031916815260200191505b50848103825287818151815260200191508051906020019080838360005b838110156127c45780820151818401526020810190506127a9565b50505050905090810190601f1680156127f15780820380516001836020036101000a031916815260200191505b509a5050505050505050505050602060405180830381600087803b15801561281857600080fd5b505af115801561282c573d6000803e3d6000fd5b505050506040513d602081101561284257600080fd5b810190808051906020019092919050505092508a73ffffffffffffffffffffffffffffffffffffffff163373ffffffffffffffffffffffffffffffffffffffff167feaba9e3c271bb82a9fd28bf677c9ee9b7a261f8ac7340051834c654f445e7db860405160405180910390a3829350505050979650505050505050565b6000806000809054906101000a900473ffffffffffffffffffffffffffffffffffffffff1673ffffffffffffffffffffffffffffffffffffffff163373ffffffffffffffffffffffffffffffffffffffff1614151561291e57600080fd5b600160009054906101000a900473ffffffffffffffffffffffffffffffffffffffff1673ffffffffffffffffffffffffffffffffffffffff1663cf37467488888888886040518663ffffffff167c010000000000000000000000000000000000000000000000000000000002815260040180806020018060200180602001806020018060200186810386528b818151815260200191508051906020019080838360005b838110156129dc5780820151818401526020810190506129c1565b50505050905090810190601f168015612a095780820380516001836020036101000a031916815260200191505b5086810385528a818151815260200191508051906020019080838360005b83811015612a42578082015181840152602081019050612a27565b50505050905090810190601f168015612a6f5780820380516001836020036101000a031916815260200191505b50868103845289818151815260200191508051906020019080838360005b83811015612aa8578082015181840152602081019050612a8d565b50505050905090810190601f168015612ad55780820380516001836020036101000a031916815260200191505b50868103835288818151815260200191508051906020019080838360005b83811015612b0e578082015181840152602081019050612af3565b50505050905090810190601f168015612b3b5780820380516001836020036101000a031916815260200191505b50868103825287818151815260200191508051906020019080838360005b83811015612b74578082015181840152602081019050612b59565b50505050905090810190601f168015612ba15780820380516001836020036101000a031916815260200191505b509a5050505050505050505050602060405180830381600087803b158015612bc857600080fd5b505af1158015612bdc573d6000803e3d6000fd5b505050506040513d6020811015612bf257600080fd5b810190808051906020019092919050505090508073ffffffffffffffffffffffffffffffffffffffff163373ffffffffffffffffffffffffffffffffffffffff167ffb0cd0976d848f2ad8c4a6963c1295c96186b2f3919c8204b4fcb350fc36a31f60405160405180910390a38091505095945050505050565b6060600160009054906101000a900473ffffffffffffffffffffffffffffffffffffffff1673ffffffffffffffffffffffffffffffffffffffff16634d6b5e00836040518263ffffffff167c0100000000000000000000000000000000000000000000000000000000028152600401808273ffffffffffffffffffffffffffffffffffffffff1673ffffffffffffffffffffffffffffffffffffffff168152602001915050600060405180830381600087803b158015612d2b57600080fd5b505af1158015612d3f573d6000803e3d6000fd5b505050506040513d6000823e3d601f19601f820116820180604052506020811015612d6957600080fd5b810190808051640100000000811115612d8157600080fd5b82810190506020810184811115612d9757600080fd5b8151856001820283011164010000000082111715612db457600080fd5b50509291905050509050809050919050565b6000809054906101000a900473ffffffffffffffffffffffffffffffffffffffff1673ffffffffffffffffffffffffffffffffffffffff163373ffffffffffffffffffffffffffffffffffffffff16141515612e2157600080fd5b6000809054906101000a900473ffffffffffffffffffffffffffffffffffffffff1673ffffffffffffffffffffffffffffffffffffffff167ff8df31144d9c2f0f6b59d69b8b98abd5459d07f2742c4df920b25aae33c6482060405160405180910390a260008060006101000a81548173ffffffffffffffffffffffffffffffffffffffff021916908373ffffffffffffffffffffffffffffffffffffffff160217905550565b6060806060600160009054906101000a900473ffffffffffffffffffffffffffffffffffffffff1673ffffffffffffffffffffffffffffffffffffffff16637f89e94b856040518263ffffffff167c0100000000000000000000000000000000000000000000000000000000028152600401808273ffffffffffffffffffffffffffffffffffffffff1673ffffffffffffffffffffffffffffffffffffffff168152602001915050600060405180830381600087803b158015612f8a57600080fd5b505af1158015612f9e573d6000803e3d6000fd5b505050506040513d6000823e3d601f19601f820116820180604052506060811015612fc857600080fd5b810190808051640100000000811115612fe057600080fd5b82810190506020810184811115612ff657600080fd5b815185600182028301116401000000008211171561301357600080fd5b5050929190602001805164010000000081111561302f57600080fd5b8281019050602081018481111561304557600080fd5b815185600182028301116401000000008211171561306257600080fd5b5050929190602001805164010000000081111561307e57600080fd5b8281019050602081018481111561309457600080fd5b81518560018202830111640100000000821117156130b157600080fd5b50509291905050508093508194508295505050508282829250925092509193909250565b600080856040805190810160405280600f81526020017f4641524d5f494e5350454354494f4e0000000000000000000000000000000000815250806040518082805190602001908083835b6020831015156131455780518252602082019150602081019050602083039250613120565b6001836020036101000a038019825116818451168082178552505050505050905001915050604051809103902060001916600160009054906101000a900473ffffffffffffffffffffffffffffffffffffffff1673ffffffffffffffffffffffffffffffffffffffff166327820851336040518263ffffffff167c0100000000000000000000000000000000000000000000000000000000028152600401808273ffffffffffffffffffffffffffffffffffffffff1673ffffffffffffffffffffffffffffffffffffffff168152602001915050600060405180830381600087803b15801561323357600080fd5b505af1158015613247573d6000803e3d6000fd5b505050506040513d6000823e3d601f19601f82011682018060405250602081101561327157600080fd5b81019080805164010000000081111561328957600080fd5b8281019050602081018481111561329f57600080fd5b81518560018202830111640100000000821117156132bc57600080fd5b50509291905050506040518082805190602001908083835b6020831015156132f957805182526020820191506020810190506020830392506132d4565b6001836020036101000a03801982511681845116808217855250505050505090500191505060405180910390206000191614151561333657600080fd5b806040518082805190602001908083835b60208310151561336c5780518252602082019150602081019050602083039250613347565b6001836020036101000a038019825116818451168082178552505050505050905001915050604051809103902060001916600160009054906101000a900473ffffffffffffffffffffffffffffffffffffffff1673ffffffffffffffffffffffffffffffffffffffff16634d6b5e00846040518263ffffffff167c0100000000000000000000000000000000000000000000000000000000028152600401808273ffffffffffffffffffffffffffffffffffffffff1673ffffffffffffffffffffffffffffffffffffffff168152602001915050600060405180830381600087803b15801561345a57600080fd5b505af115801561346e573d6000803e3d6000fd5b505050506040513d6000823e3d601f19601f82011682018060405250602081101561349857600080fd5b8101908080516401000000008111156134b057600080fd5b828101905060208101848111156134c657600080fd5b81518560018202830111640100000000821117156134e357600080fd5b50509291905050506040518082805190602001908083835b60208310151561352057805182526020820191506020810190506020830392506134fb565b6001836020036101000a03801982511681845116808217855250505050505090500191505060405180910390206000191614151561355d57600080fd5b600160009054906101000a900473ffffffffffffffffffffffffffffffffffffffff1673ffffffffffffffffffffffffffffffffffffffff16631dbcddf4898989896040518563ffffffff167c0100000000000000000000000000000000000000000000000000000000028152600401808573ffffffffffffffffffffffffffffffffffffffff1673ffffffffffffffffffffffffffffffffffffffff168152602001806020018060200180602001848103845287818151815260200191508051906020019080838360005b83811015613644578082015181840152602081019050613629565b50505050905090810190601f1680156136715780820380516001836020036101000a031916815260200191505b50848103835286818151815260200191508051906020019080838360005b838110156136aa57808201518184015260208101905061368f565b50505050905090810190601f1680156136d75780820380516001836020036101000a031916815260200191505b50848103825285818151815260200191508051906020019080838360005b838110156137105780820151818401526020810190506136f5565b50505050905090810190601f16801561373d5780820380516001836020036101000a031916815260200191505b50975050505050505050602060405180830381600087803b15801561376157600080fd5b505af1158015613775573d6000803e3d6000fd5b505050506040513d602081101561378b57600080fd5b810190808051906020019092919050505092508773ffffffffffffffffffffffffffffffffffffffff163373ffffffffffffffffffffffffffffffffffffffff167ff38048a8487a9352f87561aa442e92de7d09d55718b8bfc9b16720ea061c35c760405160405180910390a3829350505050949350505050565b600080896040805190810160405280600981526020017f50524f434553534f520000000000000000000000000000000000000000000000815250806040518082805190602001908083835b6020831015156138765780518252602082019150602081019050602083039250613851565b6001836020036101000a038019825116818451168082178552505050505050905001915050604051809103902060001916600160009054906101000a900473ffffffffffffffffffffffffffffffffffffffff1673ffffffffffffffffffffffffffffffffffffffff166327820851336040518263ffffffff167c0100000000000000000000000000000000000000000000000000000000028152600401808273ffffffffffffffffffffffffffffffffffffffff1673ffffffffffffffffffffffffffffffffffffffff168152602001915050600060405180830381600087803b15801561396457600080fd5b505af1158015613978573d6000803e3d6000fd5b505050506040513d6000823e3d601f19601f8201168201806040525060208110156139a257600080fd5b8101908080516401000000008111156139ba57600080fd5b828101905060208101848111156139d057600080fd5b81518560018202830111640100000000821117156139ed57600080fd5b50509291905050506040518082805190602001908083835b602083101515613a2a5780518252602082019150602081019050602083039250613a05565b6001836020036101000a038019825116818451168082178552505050505050905001915050604051809103902060001916141515613a6757600080fd5b806040518082805190602001908083835b602083101515613a9d5780518252602082019150602081019050602083039250613a78565b6001836020036101000a038019825116818451168082178552505050505050905001915050604051809103902060001916600160009054906101000a900473ffffffffffffffffffffffffffffffffffffffff1673ffffffffffffffffffffffffffffffffffffffff16634d6b5e00846040518263ffffffff167c0100000000000000000000000000000000000000000000000000000000028152600401808273ffffffffffffffffffffffffffffffffffffffff1673ffffffffffffffffffffffffffffffffffffffff168152602001915050600060405180830381600087803b158015613b8b57600080fd5b505af1158015613b9f573d6000803e3d6000fd5b505050506040513d6000823e3d601f19601f820116820180604052506020811015613bc957600080fd5b810190808051640100000000811115613be157600080fd5b82810190506020810184811115613bf757600080fd5b8151856001820283011164010000000082111715613c1457600080fd5b50509291905050506040518082805190602001908083835b602083101515613c515780518252602082019150602081019050602083039250613c2c565b6001836020036101000a038019825116818451168082178552505050505050905001915050604051809103902060001916141515613c8e57600080fd5b600160009054906101000a900473ffffffffffffffffffffffffffffffffffffffff1673ffffffffffffffffffffffffffffffffffffffff166353a7571f8d8d8d8d8d8d8d8d6040518963ffffffff167c0100000000000000000000000000000000000000000000000000000000028152600401808973ffffffffffffffffffffffffffffffffffffffff1673ffffffffffffffffffffffffffffffffffffffff1681526020018881526020018060200187815260200180602001868152602001806020018060200185810385528b818151815260200191508051906020019080838360005b83811015613d8f578082015181840152602081019050613d74565b50505050905090810190601f168015613dbc5780820380516001836020036101000a031916815260200191505b50858103845289818151815260200191508051906020019080838360005b83811015613df5578082015181840152602081019050613dda565b50505050905090810190601f168015613e225780820380516001836020036101000a031916815260200191505b50858103835287818151815260200191508051906020019080838360005b83811015613e5b578082015181840152602081019050613e40565b50505050905090810190601f168015613e885780820380516001836020036101000a031916815260200191505b50858103825286818151815260200191508051906020019080838360005b83811015613ec1578082015181840152602081019050613ea6565b50505050905090810190601f168015613eee5780820380516001836020036101000a031916815260200191505b509c50505050505050505050505050602060405180830381600087803b158015613f1757600080fd5b505af1158015613f2b573d6000803e3d6000fd5b505050506040513d6020811015613f4157600080fd5b810190808051906020019092919050505092508b73ffffffffffffffffffffffffffffffffffffffff163373ffffffffffffffffffffffffffffffffffffffff167fe10398ac963823ae3dc8fc855773d4c9c3d53c5aca656e360a2a5c2ae659f26160405160405180910390a382935050505098975050505050505050565b6000809054906101000a900473ffffffffffffffffffffffffffffffffffffffff1681565b60006060600060606000606080600160009054906101000a900473ffffffffffffffffffffffffffffffffffffffff1673ffffffffffffffffffffffffffffffffffffffff1663b6959d73896040518263ffffffff167c0100000000000000000000000000000000000000000000000000000000028152600401808273ffffffffffffffffffffffffffffffffffffffff1673ffffffffffffffffffffffffffffffffffffffff168152602001915050600060405180830381600087803b1580156140af57600080fd5b505af11580156140c3573d6000803e3d6000fd5b505050506040513d6000823e3d601f19601f8201168201806040525060e08110156140ed57600080fd5b8101908080519060200190929190805164010000000081111561410f57600080fd5b8281019050602081018481111561412557600080fd5b815185600182028301116401000000008211171561414257600080fd5b505092919060200180519060200190929190805164010000000081111561416857600080fd5b8281019050602081018481111561417e57600080fd5b815185600182028301116401000000008211171561419b57600080fd5b50509291906020018051906020019092919080516401000000008111156141c157600080fd5b828101905060208101848111156141d757600080fd5b81518560018202830111640100000000821117156141f457600080fd5b5050929190602001805164010000000081111561421057600080fd5b8281019050602081018481111561422657600080fd5b815185600182028301116401000000008211171561424357600080fd5b5050929190505050809750819850829950839a50849b50859c50869d5050505050505050868686868686869650965096509650965096509650919395979092949650565b6060806060600160009054906101000a900473ffffffffffffffffffffffffffffffffffffffff1673ffffffffffffffffffffffffffffffffffffffff1663ca5322e5856040518263ffffffff167c0100000000000000000000000000000000000000000000000000000000028152600401808273ffffffffffffffffffffffffffffffffffffffff1673ffffffffffffffffffffffffffffffffffffffff168152602001915050600060405180830381600087803b15801561434957600080fd5b505af115801561435d573d6000803e3d6000fd5b505050506040513d6000823e3d601f19601f82011682018060405250606081101561438757600080fd5b81019080805164010000000081111561439f57600080fd5b828101905060208101848111156143b557600080fd5b81518560018202830111640100000000821117156143d257600080fd5b505092919060200180516401000000008111156143ee57600080fd5b8281019050602081018481111561440457600080fd5b815185600182028301116401000000008211171561442157600080fd5b5050929190602001805164010000000081111561443d57600080fd5b8281019050602081018481111561445357600080fd5b815185600182028301116401000000008211171561447057600080fd5b50509291905050508093508194508295505050508282829250925092509193909250565b600080856040805190810160405280600981526020017f4841525645535445520000000000000000000000000000000000000000000000815250806040518082805190602001908083835b60208310151561450457805182526020820191506020810190506020830392506144df565b6001836020036101000a038019825116818451168082178552505050505050905001915050604051809103902060001916600160009054906101000a900473ffffffffffffffffffffffffffffffffffffffff1673ffffffffffffffffffffffffffffffffffffffff166327820851336040518263ffffffff167c0100000000000000000000000000000000000000000000000000000000028152600401808273ffffffffffffffffffffffffffffffffffffffff1673ffffffffffffffffffffffffffffffffffffffff168152602001915050600060405180830381600087803b1580156145f257600080fd5b505af1158015614606573d6000803e3d6000fd5b505050506040513d6000823e3d601f19601f82011682018060405250602081101561463057600080fd5b81019080805164010000000081111561464857600080fd5b8281019050602081018481111561465e57600080fd5b815185600182028301116401000000008211171561467b57600080fd5b50509291905050506040518082805190602001908083835b6020831015156146b85780518252602082019150602081019050602083039250614693565b6001836020036101000a0380198251168184511680821785525050505050509050019150506040518091039020600019161415156146f557600080fd5b806040518082805190602001908083835b60208310151561472b5780518252602082019150602081019050602083039250614706565b6001836020036101000a038019825116818451168082178552505050505050905001915050604051809103902060001916600160009054906101000a900473ffffffffffffffffffffffffffffffffffffffff1673ffffffffffffffffffffffffffffffffffffffff16634d6b5e00846040518263ffffffff167c0100000000000000000000000000000000000000000000000000000000028152600401808273ffffffffffffffffffffffffffffffffffffffff1673ffffffffffffffffffffffffffffffffffffffff168152602001915050600060405180830381600087803b15801561481957600080fd5b505af115801561482d573d6000803e3d6000fd5b505050506040513d6000823e3d601f19601f82011682018060405250602081101561485757600080fd5b81019080805164010000000081111561486f57600080fd5b8281019050602081018481111561488557600080fd5b81518560018202830111640100000000821117156148a257600080fd5b50509291905050506040518082805190602001908083835b6020831015156148df57805182526020820191506020810190506020830392506148ba565b6001836020036101000a03801982511681845116808217855250505050505090500191505060405180910390206000191614151561491c57600080fd5b600160009054906101000a900473ffffffffffffffffffffffffffffffffffffffff1673ffffffffffffffffffffffffffffffffffffffff16630ab36749898989896040518563ffffffff167c0100000000000000000000000000000000000000000000000000000000028152600401808573ffffffffffffffffffffffffffffffffffffffff1673ffffffffffffffffffffffffffffffffffffffff168152602001806020018060200180602001848103845287818151815260200191508051906020019080838360005b83811015614a035780820151818401526020810190506149e8565b50505050905090810190601f168015614a305780820380516001836020036101000a031916815260200191505b50848103835286818151815260200191508051906020019080838360005b83811015614a69578082015181840152602081019050614a4e565b50505050905090810190601f168015614a965780820380516001836020036101000a031916815260200191505b50848103825285818151815260200191508051906020019080838360005b83811015614acf578082015181840152602081019050614ab4565b50505050905090810190601f168015614afc5780820380516001836020036101000a031916815260200191505b50975050505050505050602060405180830381600087803b158015614b2057600080fd5b505af1158015614b34573d6000803e3d6000fd5b505050506040513d6020811015614b4a57600080fd5b810190808051906020019092919050505092508773ffffffffffffffffffffffffffffffffffffffff163373ffffffffffffffffffffffffffffffffffffffff167fbb868668319b351e6f49e0d6ed1618eda15ffe73f6f6f371e419b8d3963a6be560405160405180910390a3829350505050949350505050565b6060806060806060600160009054906101000a900473ffffffffffffffffffffffffffffffffffffffff1673ffffffffffffffffffffffffffffffffffffffff1663f2997d76876040518263ffffffff167c0100000000000000000000000000000000000000000000000000000000028152600401808273ffffffffffffffffffffffffffffffffffffffff1673ffffffffffffffffffffffffffffffffffffffff168152602001915050600060405180830381600087803b158015614c8a57600080fd5b505af1158015614c9e573d6000803e3d6000fd5b505050506040513d6000823e3d601f19601f8201168201806040525060a0811015614cc857600080fd5b810190808051640100000000811115614ce057600080fd5b82810190506020810184811115614cf657600080fd5b8151856001820283011164010000000082111715614d1357600080fd5b50509291906020018051640100000000811115614d2f57600080fd5b82810190506020810184811115614d4557600080fd5b8151856001820283011164010000000082111715614d6257600080fd5b50509291906020018051640100000000811115614d7e57600080fd5b82810190506020810184811115614d9457600080fd5b8151856001820283011164010000000082111715614db157600080fd5b50509291906020018051640100000000811115614dcd57600080fd5b82810190506020810184811115614de357600080fd5b8151856001820283011164010000000082111715614e0057600080fd5b50509291906020018051640100000000811115614e1c57600080fd5b82810190506020810184811115614e3257600080fd5b8151856001820283011164010000000082111715614e4f57600080fd5b5050929190505050809550819650829750839850849950505050505084848484849450945094509450945091939590929450565b6000809054906101000a900473ffffffffffffffffffffffffffffffffffffffff1673ffffffffffffffffffffffffffffffffffffffff163373ffffffffffffffffffffffffffffffffffffffff16141515614ede57600080fd5b600073ffffffffffffffffffffffffffffffffffffffff168173ffffffffffffffffffffffffffffffffffffffff1614151515614f1a57600080fd5b8073ffffffffffffffffffffffffffffffffffffffff166000809054906101000a900473ffffffffffffffffffffffffffffffffffffffff1673ffffffffffffffffffffffffffffffffffffffff167f8be0079c531659141344cd1fd0a4f28419497f9722a3daafe3b4186f6b6457e060405160405180910390a3806000806101000a81548173ffffffffffffffffffffffffffffffffffffffff021916908373ffffffffffffffffffffffffffffffffffffffff16021790555050565b6000606080600060608060606000600160009054906101000a900473ffffffffffffffffffffffffffffffffffffffff1673ffffffffffffffffffffffffffffffffffffffff1663febd04928a6040518263ffffffff167c0100000000000000000000000000000000000000000000000000000000028152600401808273ffffffffffffffffffffffffffffffffffffffff1673ffffffffffffffffffffffffffffffffffffffff168152602001915050600060405180830381600087803b1580156150a357600080fd5b505af11580156150b7573d6000803e3d6000fd5b505050506040513d6000823e3d601f19601f820116820180604052506101008110156150e257600080fd5b8101908080519060200190929190805164010000000081111561510457600080fd5b8281019050602081018481111561511a57600080fd5b815185600182028301116401000000008211171561513757600080fd5b5050929190602001805164010000000081111561515357600080fd5b8281019050602081018481111561516957600080fd5b815185600182028301116401000000008211171561518657600080fd5b50509291906020018051906020019092919080516401000000008111156151ac57600080fd5b828101905060208101848111156151c257600080fd5b81518560018202830111640100000000821117156151df57600080fd5b505092919060200180516401000000008111156151fb57600080fd5b8281019050602081018481111561521157600080fd5b815185600182028301116401000000008211171561522e57600080fd5b5050929190602001805164010000000081111561524a57600080fd5b8281019050602081018481111561526057600080fd5b815185600182028301116401000000008211171561527d57600080fd5b505092919060200180519060200190929190505050809850819950829a50839b50849c50859d50869e50879f5050505050505050508787878787878787975097509750975097509750975097509193959750919395975600a165627a7a7230582062b08e90a1f419e9ce5e035e89f5889ce19b949b587f03ed921dc9646ac6fcf20029",
  "source": "pragma solidity ^0.4.23;\r\nimport \"./SupplyChainStorage.sol\";\r\nimport \"./Ownable.sol\";\r\n\r\ncontract CoffeeSupplyChain is Ownable {\r\n    event PerformCultivation(address indexed user, address indexed batchNo);\r\n    event DoneInspection(address indexed user, address indexed batchNo);\r\n    event DoneHarvesting(address indexed user, address indexed batchNo);\r\n    event DoneExporting(address indexed user, address indexed batchNo);\r\n    event DoneImporting(address indexed user, address indexed batchNo);\r\n    event DoneProcessing(address indexed user, address indexed batchNo);\r\n\r\n    /*Modifier*/\r\n    modifier isValidPerformer(address batchNo, string role) {\r\n        require(\r\n            keccak256(supplyChainStorage.getUserRole(msg.sender)) ==\r\n                keccak256(role)\r\n        );\r\n        require(\r\n            keccak256(supplyChainStorage.getNextAction(batchNo)) ==\r\n                keccak256(role)\r\n        );\r\n        _;\r\n    }\r\n\r\n    /* Storage Variables */\r\n    SupplyChainStorage supplyChainStorage;\r\n\r\n    constructor(address _supplyChainAddress) public {\r\n        supplyChainStorage = SupplyChainStorage(_supplyChainAddress);\r\n    }\r\n\r\n    /* Get Next Action  */\r\n\r\n    function getNextAction(address _batchNo)\r\n        public\r\n        view\r\n        returns (string action)\r\n    {\r\n        (action) = supplyChainStorage.getNextAction(_batchNo);\r\n        return (action);\r\n    }\r\n\r\n    /* get Basic Details */\r\n\r\n    function getBasicDetails(address _batchNo)\r\n        public\r\n        view\r\n        returns (\r\n            string registrationNo,\r\n            string farmerName,\r\n            string farmAddress,\r\n            string exporterName,\r\n            string importerName\r\n        )\r\n    {\r\n        /* Call Storage Contract */\r\n        (\r\n            registrationNo,\r\n            farmerName,\r\n            farmAddress,\r\n            exporterName,\r\n            importerName\r\n        ) = supplyChainStorage.getBasicDetails(_batchNo);\r\n        return (\r\n            registrationNo,\r\n            farmerName,\r\n            farmAddress,\r\n            exporterName,\r\n            importerName\r\n        );\r\n    }\r\n\r\n    /* perform Basic Cultivation */\r\n\r\n    function addBasicDetails(\r\n        string _registrationNo,\r\n        string _farmerName,\r\n        string _farmAddress,\r\n        string _exporterName,\r\n        string _importerName\r\n    ) public onlyOwner returns (address) {\r\n        address batchNo = supplyChainStorage.setBasicDetails(\r\n            _registrationNo,\r\n            _farmerName,\r\n            _farmAddress,\r\n            _exporterName,\r\n            _importerName\r\n        );\r\n\r\n        emit PerformCultivation(msg.sender, batchNo);\r\n\r\n        return (batchNo);\r\n    }\r\n\r\n    /* get Farm Inspection */\r\n\r\n    function getFarmInspectorData(address _batchNo)\r\n        public\r\n        view\r\n        returns (\r\n            string coffeeFamily,\r\n            string typeOfSeed,\r\n            string fertilizerUsed\r\n        )\r\n    {\r\n        /* Call Storage Contract */\r\n        (coffeeFamily, typeOfSeed, fertilizerUsed) = supplyChainStorage\r\n            .getFarmInspectorData(_batchNo);\r\n        return (coffeeFamily, typeOfSeed, fertilizerUsed);\r\n    }\r\n\r\n    /* perform Farm Inspection */\r\n\r\n    function updateFarmInspectorData(\r\n        address _batchNo,\r\n        string _coffeeFamily,\r\n        string _typeOfSeed,\r\n        string _fertilizerUsed\r\n    ) public isValidPerformer(_batchNo, \"FARM_INSPECTION\") returns (bool) {\r\n        /* Call Storage Contract */\r\n        bool status = supplyChainStorage.setFarmInspectorData(\r\n            _batchNo,\r\n            _coffeeFamily,\r\n            _typeOfSeed,\r\n            _fertilizerUsed\r\n        );\r\n\r\n        emit DoneInspection(msg.sender, _batchNo);\r\n        return (status);\r\n    }\r\n\r\n    /* get Harvest */\r\n\r\n    function getHarvesterData(address _batchNo)\r\n        public\r\n        view\r\n        returns (\r\n            string cropVariety,\r\n            string temperatureUsed,\r\n            string humidity\r\n        )\r\n    {\r\n        /* Call Storage Contract */\r\n        (cropVariety, temperatureUsed, humidity) = supplyChainStorage\r\n            .getHarvesterData(_batchNo);\r\n        return (cropVariety, temperatureUsed, humidity);\r\n    }\r\n\r\n    /* perform Harvest */\r\n\r\n    function updateHarvesterData(\r\n        address _batchNo,\r\n        string _cropVariety,\r\n        string _temperatureUsed,\r\n        string _humidity\r\n    ) public isValidPerformer(_batchNo, \"HARVESTER\") returns (bool) {\r\n        /* Call Storage Contract */\r\n        bool status = supplyChainStorage.setHarvesterData(\r\n            _batchNo,\r\n            _cropVariety,\r\n            _temperatureUsed,\r\n            _humidity\r\n        );\r\n\r\n        emit DoneHarvesting(msg.sender, _batchNo);\r\n        return (status);\r\n    }\r\n\r\n    /* get Export */\r\n\r\n    function getExporterData(address _batchNo)\r\n        public\r\n        view\r\n        returns (\r\n            uint256 quantity,\r\n            string destinationAddress,\r\n            string shipName,\r\n            string shipNo,\r\n            uint256 departureDateTime,\r\n            uint256 estimateDateTime,\r\n            uint256 exporterId\r\n        )\r\n    {\r\n        /* Call Storage Contract */\r\n        (\r\n            quantity,\r\n            destinationAddress,\r\n            shipName,\r\n            shipNo,\r\n            departureDateTime,\r\n            estimateDateTime,\r\n            exporterId\r\n        ) = supplyChainStorage.getExporterData(_batchNo);\r\n\r\n        return (\r\n            quantity,\r\n            destinationAddress,\r\n            shipName,\r\n            shipNo,\r\n            departureDateTime,\r\n            estimateDateTime,\r\n            exporterId\r\n        );\r\n    }\r\n\r\n    /* perform Export */\r\n\r\n    function updateExporterData(\r\n        address _batchNo,\r\n        uint256 _quantity,\r\n        string _destinationAddress,\r\n        string _shipName,\r\n        string _shipNo,\r\n        uint256 _estimateDateTime,\r\n        uint256 _exporterId\r\n    ) public isValidPerformer(_batchNo, \"EXPORTER\") returns (bool) {\r\n        /* Call Storage Contract */\r\n        bool status = supplyChainStorage.setExporterData(\r\n            _batchNo,\r\n            _quantity,\r\n            _destinationAddress,\r\n            _shipName,\r\n            _shipNo,\r\n            _estimateDateTime,\r\n            _exporterId\r\n        );\r\n\r\n        emit DoneExporting(msg.sender, _batchNo);\r\n        return (status);\r\n    }\r\n\r\n    /* get Import */\r\n\r\n    function getImporterData(address _batchNo)\r\n        public\r\n        view\r\n        returns (\r\n            uint256 quantity,\r\n            string shipName,\r\n            string shipNo,\r\n            uint256 arrivalDateTime,\r\n            string transportInfo,\r\n            string warehouseName,\r\n            string warehouseAddress,\r\n            uint256 importerId\r\n        )\r\n    {\r\n        /* Call Storage Contract */\r\n        (\r\n            quantity,\r\n            shipName,\r\n            shipNo,\r\n            arrivalDateTime,\r\n            transportInfo,\r\n            warehouseName,\r\n            warehouseAddress,\r\n            importerId\r\n        ) = supplyChainStorage.getImporterData(_batchNo);\r\n\r\n        return (\r\n            quantity,\r\n            shipName,\r\n            shipNo,\r\n            arrivalDateTime,\r\n            transportInfo,\r\n            warehouseName,\r\n            warehouseAddress,\r\n            importerId\r\n        );\r\n    }\r\n\r\n    /* perform Import */\r\n\r\n    function updateImporterData(\r\n        address _batchNo,\r\n        uint256 _quantity,\r\n        string _shipName,\r\n        string _shipNo,\r\n        string _transportInfo,\r\n        string _warehouseName,\r\n        string _warehouseAddress,\r\n        uint256 _importerId\r\n    ) public isValidPerformer(_batchNo, \"IMPORTER\") returns (bool) {\r\n        /* Call Storage Contract */\r\n        bool status = supplyChainStorage.setImporterData(\r\n            _batchNo,\r\n            _quantity,\r\n            _shipName,\r\n            _shipNo,\r\n            _transportInfo,\r\n            _warehouseName,\r\n            _warehouseAddress,\r\n            _importerId\r\n        );\r\n\r\n        emit DoneImporting(msg.sender, _batchNo);\r\n        return (status);\r\n    }\r\n\r\n    /* get Processor */\r\n\r\n    function getProcessorData(address _batchNo)\r\n        public\r\n        view\r\n        returns (\r\n            uint256 quantity,\r\n            string temperature,\r\n            uint256 rostingDuration,\r\n            string internalBatchNo,\r\n            uint256 packageDateTime,\r\n            string processorName,\r\n            string processorAddress\r\n        )\r\n    {\r\n        /* Call Storage Contract */\r\n        (\r\n            quantity,\r\n            temperature,\r\n            rostingDuration,\r\n            internalBatchNo,\r\n            packageDateTime,\r\n            processorName,\r\n            processorAddress\r\n        ) = supplyChainStorage.getProcessorData(_batchNo);\r\n\r\n        return (\r\n            quantity,\r\n            temperature,\r\n            rostingDuration,\r\n            internalBatchNo,\r\n            packageDateTime,\r\n            processorName,\r\n            processorAddress\r\n        );\r\n    }\r\n\r\n    /* perform Processing */\r\n\r\n    function updateProcessorData(\r\n        address _batchNo,\r\n        uint256 _quantity,\r\n        string _temperature,\r\n        uint256 _rostingDuration,\r\n        string _internalBatchNo,\r\n        uint256 _packageDateTime,\r\n        string _processorName,\r\n        string _processorAddress\r\n    ) public isValidPerformer(_batchNo, \"PROCESSOR\") returns (bool) {\r\n        /* Call Storage Contract */\r\n        bool status = supplyChainStorage.setProcessorData(\r\n            _batchNo,\r\n            _quantity,\r\n            _temperature,\r\n            _rostingDuration,\r\n            _internalBatchNo,\r\n            _packageDateTime,\r\n            _processorName,\r\n            _processorAddress\r\n        );\r\n\r\n        emit DoneProcessing(msg.sender, _batchNo);\r\n        return (status);\r\n    }\r\n}\r\n",
  "sourcePath": "C:\\Users\\HP\\Desktop\\BlockFarm\\contracts\\CoffeeSupplyChain.sol",
  "compiler": {
    "name": "solc",
    "version": "0.4.23+commit.124ca40d.Emscripten.clang"
  },
  "schemaVersion": "3.4.9",
  "updatedAt": "2022-09-07T16:45:38.256Z",
  "networkType": "ethereum",
  "devdoc": {
    "methods": {
      "renounceOwnership()": {
        "details": "Allows the current owner to relinquish control of the contract.\r"
      },
      "transferOwnership(address)": {
        "details": "Allows the current owner to transfer control of the contract to a newOwner.\r",
        "params": {
          "newOwner": "The address to transfer ownership to.\r"
        }
      }
    }
  },
  "userdoc": {
    "methods": {}
  }
}